:020000020000FC
:1000000053C0189518951895189518951895189522
:100010001895189518951895189518951895189578
:1000200040C3189518951895189518951895189512
:10003000189518953F065B4F666D7D077F6F1F0013
:10004000210027002A0033003A0042004D005D00E5
:1000500074009A00E7009A0074005D004D004200B1
:100060003A0033002A00270021001F00210027004A
:100070002A0033003A0042004D005D0074009A00EF
:100080009D0357046D053C07DA0AB315DA0A3C07ED
:100090006D05570474004D003A002A0027001D002A
:1000A00027002A003A004D00F89402E00EBF0FEF3F
:1000B0000DBF0FEF04B900E005B90FEF07B900E07D
:1000C00008B90FEF0AB900E00BB900E800BF01E082
:1000D00003BFF894A89504B7007004BF00916000B6
:1000E00008610093600000E00093600078940027AE
:1000F0001127222733274427EE27FF277894DFC2D2
:10010000E0EAF2E07A9509F00994983709F4992722
:10011000E0E9F0E03F933327E90FF31F3F910994A3
:1001200041C04EC06AC077C094C09FC0A8C0B3C0D1
:10013000BCC0CAC0E6C0F3C023C12FC136C141C193
:100140005CC167C170C179C180C18BC194C19DC1BF
:10015000A4C1B0C1B8C1C3C1DAC1E5C1EEC1EDC12E
:10016000ECC1EBC1EAC1E9C1E8C1E7C1E6C1E5C143
:10017000E6C1E5C1E4C1E3C1E2C1E1C1E0C1DFC163
:10018000DEC1DDC1DCC1DBC1DAC1D9C1D8C1D7C193
:10019000D6C1D5C1D4C1D3C1D2C1D1C1D0C1CFC1C3
:1001A000CEC1CDC101E00093000100E00093010148
:1001B00000E00093020141E055276627939586E110
:1001C00071E0889440FB67955795479565F98A9546
:1001D00091F4009100011091010120910201089415
:1001E000001F111F221F0093000110930101209393
:1001F000020186E12F33B9F4939500E000930001EA
:1002000000E00093010100E20093020141E0552764
:100210006627939586E171E08894441F551F661FF9
:1002200066FB40F98A9549F50091000110910101A2
:100230002091020108942795206217950795009355
:100240000001109301012093020186E10F3FA9F400
:100250009395002700930001009301010093020190
:1002600047E055276627939588E572E0889440FB20
:1002700067955795479565F98A95A9F49395002751
:1002800000930001009301010093020148EF5FEF2A
:100290006FE3939588E572E08894441F551F661FAD
:1002A00066FB40F98A9559F5939501E000930001AA
:1002B00000E00093010100E00093020141E05527B6
:1002C000662736E0939582E071E0889440FB67955D
:1002D0005795479565F98A9591F400910001109121
:1002E0000101209102010894001F111F221F009399
:1002F0000001109301012093020182E02F33B9F431
:10030000939500E00093000100E00093010100E2FA
:100310000093020141E055276627939582E071E042
:100320008894441F551F661F66FB40F98A95D9F5CE
:10033000009100011091010120910201089427957C
:1003400020621795079500930001109301012093F7
:10035000020182E00F3F59F701E00093000100E045
:100360000093010100E00093020141E05527662758
:1003700082E09A959A953A95D1F6939593959395AF
:10038000002700930001009301010093020141E066
:100390005527662722E0939587E174E00894441F6F
:1003A000551F661F8A95E9F4939500270093000175
:1003B00000930101009302016FE35FEF4FEF93950C
:1003C00087E120FF01C006C075E0889467955795C6
:1003D000479506C077E08894441F551F661F00C0EC
:1003E0008A95F9F441E05527662787E19A959A9511
:1003F0002A95B9F49395939593950027009300015E
:10040000009301010093020146EB5DE66BEF9395CB
:1004100080E872E0889440FB67955795479565F9A9
:100420008A9539F593950027009300010093010107
:1004300000930201222793958FEF73E0E7EDF2E03E
:1004400023953327E20FF31F09940027009300013F
:10045000009301010093020140EE57E06FEF939586
:1004600080E472E0889440FB67955795479565F95D
:100470008A9541F5939500270093000100930101AF
:1004800000930201222793958FEF73E0EFEEF2E0E5
:1004900023953327E21BF30B099400270FEF0093FA
:1004A000000107E0009301010027009302012227C9
:1004B00093958EE672E0E7EDF2E023953327E20FA5
:1004C000F31F099422C0002700930001009301014B
:1004D000009302014FEF5DEF6FEF939580E174E1C0
:1004E00080FF01C00AC008946795479557956795A6
:1004F00047955795679557954795679547955795AC
:1005000067954795579500C08A95D1F49395002734
:1005100000930001009301010093020140E050E0CC
:1005200060E0939580E47CE00FEF40270FEF5027C9
:100530000FE360278A9521F493959927E9CD00C0B0
:100540004F935F936F930F931F932F93009100012D
:1005500010910101209102014027512762270F933A
:100560001F93042F007806950695142F1F71012BF9
:10057000152F13708894179517951795012B0BB9A4
:10058000042F0076000F152F1C7F16951695012B52
:1005900005B96F7368B91F910F912F911F910F913A
:1005A0006F915F914F9188950000AACDC9CF1DC072
:1005B00020C023C026C029C02CC02FC032C035C0E7
:1005C00038C03BC03EC041C044C047C04AC04DC017
:1005D00050C053C056C059C05CC05FC0263109F43A
:1005E00022278A9519F79395E1CF40E050E060E02B
:1005F000F5CF40E05CE060E0F1CF40E05EE160E03C
:10060000EDCF40E05FE360E0E9CF40E85FE760E026
:10061000E5CF40EC5FEF60E0E1CF40EE5FEF61E0FF
:10062000DDCF40EF5FEF63E0D9CF48EF5FEF67E0EA
:10063000D5CF4CEF5FEF6FE0D1CF4EEF5FEF6FE1C3
:10064000CDCF4FEF5FEF6FE3C9CF4FEF53EF6FE3C6
:10065000C5CF4FEF51EE6FE3C1CF4FEF50EC6FE3DB
:10066000BDCF4FE750E86FE3B9CF4FE350E06FE302
:10067000B5CF4FE150E06EE3B1CF4FE050E06CE317
:10068000ADCF47E050E068E3A9CF43E050E060E33E
:10069000A5CF41E050E060E2A1CF40E050E060E053
:1006A0009DCF000004E806BD1895002704BD04E0B6
:1006B00005BD03E806BD01E000936E00089528988B
:1006C00000000000289A000041E05527662799277E
:1006D00071E081E09AE123E0E8DF12CDF0CF889568
:0606E0000000FECFFCCF7C
:00000001FF
